{
  "contractName": "Color",
  "abi": [
    {
      "inputs": [],
      "stateMutability": "nonpayable",
      "type": "constructor"
    },
    {
      "anonymous": false,
      "inputs": [
        {
          "indexed": true,
          "internalType": "address",
          "name": "owner",
          "type": "address"
        },
        {
          "indexed": true,
          "internalType": "address",
          "name": "approved",
          "type": "address"
        },
        {
          "indexed": true,
          "internalType": "uint256",
          "name": "tokenId",
          "type": "uint256"
        }
      ],
      "name": "Approval",
      "type": "event"
    },
    {
      "anonymous": false,
      "inputs": [
        {
          "indexed": true,
          "internalType": "address",
          "name": "owner",
          "type": "address"
        },
        {
          "indexed": true,
          "internalType": "address",
          "name": "operator",
          "type": "address"
        },
        {
          "indexed": false,
          "internalType": "bool",
          "name": "approved",
          "type": "bool"
        }
      ],
      "name": "ApprovalForAll",
      "type": "event"
    },
    {
      "anonymous": false,
      "inputs": [
        {
          "indexed": false,
          "internalType": "address",
          "name": "account",
          "type": "address"
        }
      ],
      "name": "Paused",
      "type": "event"
    },
    {
      "anonymous": false,
      "inputs": [
        {
          "indexed": true,
          "internalType": "bytes32",
          "name": "role",
          "type": "bytes32"
        },
        {
          "indexed": true,
          "internalType": "bytes32",
          "name": "previousAdminRole",
          "type": "bytes32"
        },
        {
          "indexed": true,
          "internalType": "bytes32",
          "name": "newAdminRole",
          "type": "bytes32"
        }
      ],
      "name": "RoleAdminChanged",
      "type": "event"
    },
    {
      "anonymous": false,
      "inputs": [
        {
          "indexed": true,
          "internalType": "bytes32",
          "name": "role",
          "type": "bytes32"
        },
        {
          "indexed": true,
          "internalType": "address",
          "name": "account",
          "type": "address"
        },
        {
          "indexed": true,
          "internalType": "address",
          "name": "sender",
          "type": "address"
        }
      ],
      "name": "RoleGranted",
      "type": "event"
    },
    {
      "anonymous": false,
      "inputs": [
        {
          "indexed": true,
          "internalType": "bytes32",
          "name": "role",
          "type": "bytes32"
        },
        {
          "indexed": true,
          "internalType": "address",
          "name": "account",
          "type": "address"
        },
        {
          "indexed": true,
          "internalType": "address",
          "name": "sender",
          "type": "address"
        }
      ],
      "name": "RoleRevoked",
      "type": "event"
    },
    {
      "anonymous": false,
      "inputs": [
        {
          "indexed": true,
          "internalType": "address",
          "name": "from",
          "type": "address"
        },
        {
          "indexed": true,
          "internalType": "address",
          "name": "to",
          "type": "address"
        },
        {
          "indexed": true,
          "internalType": "uint256",
          "name": "tokenId",
          "type": "uint256"
        }
      ],
      "name": "Transfer",
      "type": "event"
    },
    {
      "anonymous": false,
      "inputs": [
        {
          "indexed": false,
          "internalType": "address",
          "name": "account",
          "type": "address"
        }
      ],
      "name": "Unpaused",
      "type": "event"
    },
    {
      "inputs": [],
      "name": "DEFAULT_ADMIN_ROLE",
      "outputs": [
        {
          "internalType": "bytes32",
          "name": "",
          "type": "bytes32"
        }
      ],
      "stateMutability": "view",
      "type": "function",
      "constant": true
    },
    {
      "inputs": [],
      "name": "MINTER_ROLE",
      "outputs": [
        {
          "internalType": "bytes32",
          "name": "",
          "type": "bytes32"
        }
      ],
      "stateMutability": "view",
      "type": "function",
      "constant": true
    },
    {
      "inputs": [],
      "name": "PAUSER_ROLE",
      "outputs": [
        {
          "internalType": "bytes32",
          "name": "",
          "type": "bytes32"
        }
      ],
      "stateMutability": "view",
      "type": "function",
      "constant": true
    },
    {
      "inputs": [
        {
          "internalType": "address",
          "name": "to",
          "type": "address"
        },
        {
          "internalType": "uint256",
          "name": "tokenId",
          "type": "uint256"
        }
      ],
      "name": "approve",
      "outputs": [],
      "stateMutability": "nonpayable",
      "type": "function"
    },
    {
      "inputs": [
        {
          "internalType": "address",
          "name": "owner",
          "type": "address"
        }
      ],
      "name": "balanceOf",
      "outputs": [
        {
          "internalType": "uint256",
          "name": "",
          "type": "uint256"
        }
      ],
      "stateMutability": "view",
      "type": "function",
      "constant": true
    },
    {
      "inputs": [
        {
          "internalType": "uint256",
          "name": "tokenId",
          "type": "uint256"
        }
      ],
      "name": "burn",
      "outputs": [],
      "stateMutability": "nonpayable",
      "type": "function"
    },
    {
      "inputs": [
        {
          "internalType": "uint256",
          "name": "",
          "type": "uint256"
        }
      ],
      "name": "colors",
      "outputs": [
        {
          "internalType": "bytes3",
          "name": "",
          "type": "bytes3"
        }
      ],
      "stateMutability": "view",
      "type": "function",
      "constant": true
    },
    {
      "inputs": [
        {
          "internalType": "uint256",
          "name": "tokenId",
          "type": "uint256"
        }
      ],
      "name": "getApproved",
      "outputs": [
        {
          "internalType": "address",
          "name": "",
          "type": "address"
        }
      ],
      "stateMutability": "view",
      "type": "function",
      "constant": true
    },
    {
      "inputs": [
        {
          "internalType": "bytes32",
          "name": "role",
          "type": "bytes32"
        }
      ],
      "name": "getRoleAdmin",
      "outputs": [
        {
          "internalType": "bytes32",
          "name": "",
          "type": "bytes32"
        }
      ],
      "stateMutability": "view",
      "type": "function",
      "constant": true
    },
    {
      "inputs": [
        {
          "internalType": "bytes32",
          "name": "role",
          "type": "bytes32"
        },
        {
          "internalType": "uint256",
          "name": "index",
          "type": "uint256"
        }
      ],
      "name": "getRoleMember",
      "outputs": [
        {
          "internalType": "address",
          "name": "",
          "type": "address"
        }
      ],
      "stateMutability": "view",
      "type": "function",
      "constant": true
    },
    {
      "inputs": [
        {
          "internalType": "bytes32",
          "name": "role",
          "type": "bytes32"
        }
      ],
      "name": "getRoleMemberCount",
      "outputs": [
        {
          "internalType": "uint256",
          "name": "",
          "type": "uint256"
        }
      ],
      "stateMutability": "view",
      "type": "function",
      "constant": true
    },
    {
      "inputs": [
        {
          "internalType": "bytes32",
          "name": "role",
          "type": "bytes32"
        },
        {
          "internalType": "address",
          "name": "account",
          "type": "address"
        }
      ],
      "name": "grantRole",
      "outputs": [],
      "stateMutability": "nonpayable",
      "type": "function"
    },
    {
      "inputs": [
        {
          "internalType": "bytes32",
          "name": "role",
          "type": "bytes32"
        },
        {
          "internalType": "address",
          "name": "account",
          "type": "address"
        }
      ],
      "name": "hasRole",
      "outputs": [
        {
          "internalType": "bool",
          "name": "",
          "type": "bool"
        }
      ],
      "stateMutability": "view",
      "type": "function",
      "constant": true
    },
    {
      "inputs": [
        {
          "internalType": "address",
          "name": "owner",
          "type": "address"
        },
        {
          "internalType": "address",
          "name": "operator",
          "type": "address"
        }
      ],
      "name": "isApprovedForAll",
      "outputs": [
        {
          "internalType": "bool",
          "name": "",
          "type": "bool"
        }
      ],
      "stateMutability": "view",
      "type": "function",
      "constant": true
    },
    {
      "inputs": [],
      "name": "name",
      "outputs": [
        {
          "internalType": "string",
          "name": "",
          "type": "string"
        }
      ],
      "stateMutability": "view",
      "type": "function",
      "constant": true
    },
    {
      "inputs": [
        {
          "internalType": "uint256",
          "name": "tokenId",
          "type": "uint256"
        }
      ],
      "name": "ownerOf",
      "outputs": [
        {
          "internalType": "address",
          "name": "",
          "type": "address"
        }
      ],
      "stateMutability": "view",
      "type": "function",
      "constant": true
    },
    {
      "inputs": [],
      "name": "pause",
      "outputs": [],
      "stateMutability": "nonpayable",
      "type": "function"
    },
    {
      "inputs": [],
      "name": "paused",
      "outputs": [
        {
          "internalType": "bool",
          "name": "",
          "type": "bool"
        }
      ],
      "stateMutability": "view",
      "type": "function",
      "constant": true
    },
    {
      "inputs": [
        {
          "internalType": "bytes32",
          "name": "role",
          "type": "bytes32"
        },
        {
          "internalType": "address",
          "name": "account",
          "type": "address"
        }
      ],
      "name": "renounceRole",
      "outputs": [],
      "stateMutability": "nonpayable",
      "type": "function"
    },
    {
      "inputs": [
        {
          "internalType": "bytes32",
          "name": "role",
          "type": "bytes32"
        },
        {
          "internalType": "address",
          "name": "account",
          "type": "address"
        }
      ],
      "name": "revokeRole",
      "outputs": [],
      "stateMutability": "nonpayable",
      "type": "function"
    },
    {
      "inputs": [
        {
          "internalType": "address",
          "name": "from",
          "type": "address"
        },
        {
          "internalType": "address",
          "name": "to",
          "type": "address"
        },
        {
          "internalType": "uint256",
          "name": "tokenId",
          "type": "uint256"
        }
      ],
      "name": "safeTransferFrom",
      "outputs": [],
      "stateMutability": "nonpayable",
      "type": "function"
    },
    {
      "inputs": [
        {
          "internalType": "address",
          "name": "from",
          "type": "address"
        },
        {
          "internalType": "address",
          "name": "to",
          "type": "address"
        },
        {
          "internalType": "uint256",
          "name": "tokenId",
          "type": "uint256"
        },
        {
          "internalType": "bytes",
          "name": "_data",
          "type": "bytes"
        }
      ],
      "name": "safeTransferFrom",
      "outputs": [],
      "stateMutability": "nonpayable",
      "type": "function"
    },
    {
      "inputs": [
        {
          "internalType": "address",
          "name": "operator",
          "type": "address"
        },
        {
          "internalType": "bool",
          "name": "approved",
          "type": "bool"
        }
      ],
      "name": "setApprovalForAll",
      "outputs": [],
      "stateMutability": "nonpayable",
      "type": "function"
    },
    {
      "inputs": [
        {
          "internalType": "bytes4",
          "name": "interfaceId",
          "type": "bytes4"
        }
      ],
      "name": "supportsInterface",
      "outputs": [
        {
          "internalType": "bool",
          "name": "",
          "type": "bool"
        }
      ],
      "stateMutability": "view",
      "type": "function",
      "constant": true
    },
    {
      "inputs": [],
      "name": "symbol",
      "outputs": [
        {
          "internalType": "string",
          "name": "",
          "type": "string"
        }
      ],
      "stateMutability": "view",
      "type": "function",
      "constant": true
    },
    {
      "inputs": [
        {
          "internalType": "uint256",
          "name": "index",
          "type": "uint256"
        }
      ],
      "name": "tokenByIndex",
      "outputs": [
        {
          "internalType": "uint256",
          "name": "",
          "type": "uint256"
        }
      ],
      "stateMutability": "view",
      "type": "function",
      "constant": true
    },
    {
      "inputs": [
        {
          "internalType": "address",
          "name": "owner",
          "type": "address"
        },
        {
          "internalType": "uint256",
          "name": "index",
          "type": "uint256"
        }
      ],
      "name": "tokenOfOwnerByIndex",
      "outputs": [
        {
          "internalType": "uint256",
          "name": "",
          "type": "uint256"
        }
      ],
      "stateMutability": "view",
      "type": "function",
      "constant": true
    },
    {
      "inputs": [
        {
          "internalType": "uint256",
          "name": "tokenId",
          "type": "uint256"
        }
      ],
      "name": "tokenURI",
      "outputs": [
        {
          "internalType": "string",
          "name": "",
          "type": "string"
        }
      ],
      "stateMutability": "view",
      "type": "function",
      "constant": true
    },
    {
      "inputs": [],
      "name": "totalSupply",
      "outputs": [
        {
          "internalType": "uint256",
          "name": "",
          "type": "uint256"
        }
      ],
      "stateMutability": "view",
      "type": "function",
      "constant": true
    },
    {
      "inputs": [
        {
          "internalType": "address",
          "name": "from",
          "type": "address"
        },
        {
          "internalType": "address",
          "name": "to",
          "type": "address"
        },
        {
          "internalType": "uint256",
          "name": "tokenId",
          "type": "uint256"
        }
      ],
      "name": "transferFrom",
      "outputs": [],
      "stateMutability": "nonpayable",
      "type": "function"
    },
    {
      "inputs": [],
      "name": "unpause",
      "outputs": [],
      "stateMutability": "nonpayable",
      "type": "function"
    },
    {
      "inputs": [
        {
          "internalType": "address",
          "name": "to",
          "type": "address"
        }
      ],
      "name": "mint",
      "outputs": [],
      "stateMutability": "nonpayable",
      "type": "function"
    },
    {
      "inputs": [
        {
          "internalType": "bytes3",
          "name": "_color",
          "type": "bytes3"
        }
      ],
      "name": "mint",
      "outputs": [],
      "stateMutability": "nonpayable",
      "type": "function"
    }
  ],
  "bytecode": "0x60806040523480156200001157600080fd5b506040518060400160405280600581526020017f636f6c6f720000000000000000000000000000000000000000000000000000008152506040518060400160405280600581526020017f434f4c4f520000000000000000000000000000000000000000000000000000008152506040518060400160405280601b81526020017f68747470733a2f2f72696368617264616e6368696574612e636f6d000000000081525082828160029080519060200190620000ce92919062000463565b508060039080519060200190620000e792919062000463565b5050506000600c60006101000a81548160ff02191690831515021790555080600e90805190602001906200011d92919062000463565b50620001426000801b62000136620001cd60201b60201c565b620001d560201b60201c565b620001837f9f2df0fed2c77648de5860a4cc508cd0818c85b8b8a1ab4ceeef8d981c8956a662000177620001cd60201b60201c565b620001d560201b60201c565b620001c47f65d7a28e3265b37a6474929f336521b332c1681b933f6cb9f3376673440d862a620001b8620001cd60201b60201c565b620001d560201b60201c565b50505062000578565b600033905090565b620001ec82826200021d60201b620015061760201c565b6200021881600160008581526020019081526020016000206200023360201b620015141790919060201c565b505050565b6200022f82826200026b60201b60201c565b5050565b600062000263836000018373ffffffffffffffffffffffffffffffffffffffff1660001b6200035c60201b60201c565b905092915050565b6200027d8282620003d660201b60201c565b6200035857600160008084815260200190815260200160002060000160008373ffffffffffffffffffffffffffffffffffffffff1673ffffffffffffffffffffffffffffffffffffffff16815260200190815260200160002060006101000a81548160ff021916908315150217905550620002fd620001cd60201b60201c565b73ffffffffffffffffffffffffffffffffffffffff168173ffffffffffffffffffffffffffffffffffffffff16837f2f8788117e7eff1d82e926ec794901d17c78024a50270940304540a733656f0d60405160405180910390a45b5050565b60006200037083836200044060201b60201c565b620003cb578260000182908060018154018082558091505060019003906000526020600020016000909190919091505582600001805490508360010160008481526020019081526020016000208190555060019050620003d0565b600090505b92915050565b600080600084815260200190815260200160002060000160008373ffffffffffffffffffffffffffffffffffffffff1673ffffffffffffffffffffffffffffffffffffffff16815260200190815260200160002060009054906101000a900460ff16905092915050565b600080836001016000848152602001908152602001600020541415905092915050565b828054620004719062000513565b90600052602060002090601f016020900481019282620004955760008555620004e1565b82601f10620004b057805160ff1916838001178555620004e1565b82800160010185558215620004e1579182015b82811115620004e0578251825591602001919060010190620004c3565b5b509050620004f09190620004f4565b5090565b5b808211156200050f576000816000905550600101620004f5565b5090565b600060028204905060018216806200052c57607f821691505b6020821081141562000543576200054262000549565b5b50919050565b7f4e487b7100000000000000000000000000000000000000000000000000000000600052602260045260246000fd5b6149ce80620005886000396000f3fe608060405234801561001057600080fd5b50600436106101fb5760003560e01c80636a6278421161011a578063a22cb465116100ad578063ca15c8731161007c578063ca15c873146105d2578063d539139314610602578063d547741f14610620578063e63ab1e91461063c578063e985e9c51461065a576101fb565b8063a22cb4651461053a578063b88d4fde14610556578063bd11f69d14610572578063c87b56dd146105a2576101fb565b80639010d07c116100e95780639010d07c1461049e57806391d14854146104ce57806395d89b41146104fe578063a217fddf1461051c576101fb565b80636a6278421461042c57806370a082311461044857806380bcefab146104785780638456cb5914610494576101fb565b80632f745c591161019257806342966c681161016157806342966c68146103925780634f6ccce7146103ae5780635c975abb146103de5780636352211e146103fc576101fb565b80632f745c591461032057806336568abe146103505780633f4ba83a1461036c57806342842e0e14610376576101fb565b806318160ddd116101ce57806318160ddd1461029a57806323b872dd146102b8578063248a9ca3146102d45780632f2ff15d14610304576101fb565b806301ffc9a71461020057806306fdde0314610230578063081812fc1461024e578063095ea7b31461027e575b600080fd5b61021a6004803603810190610215919061338e565b61068a565b6040516102279190613956565b60405180910390f35b61023861069c565b60405161024591906139a7565b60405180910390f35b610268600480360381019061026391906133e0565b61072e565b60405161027591906138ef565b60405180910390f35b61029860048036038101906102939190613288565b6107b3565b005b6102a26108cb565b6040516102af9190613d49565b60405180910390f35b6102d260048036038101906102cd9190613182565b6108d8565b005b6102ee60048036038101906102e991906132ed565b610938565b6040516102fb9190613971565b60405180910390f35b61031e60048036038101906103199190613316565b610957565b005b61033a60048036038101906103359190613288565b61098b565b6040516103479190613d49565b60405180910390f35b61036a60048036038101906103659190613316565b610a30565b005b610374610a64565b005b610390600480360381019061038b9190613182565b610ade565b005b6103ac60048036038101906103a791906133e0565b610afe565b005b6103c860048036038101906103c391906133e0565b610b5a565b6040516103d59190613d49565b60405180910390f35b6103e6610bf1565b6040516103f39190613956565b60405180910390f35b610416600480360381019061041191906133e0565b610c08565b60405161042391906138ef565b60405180910390f35b6104466004803603810190610441919061311d565b610cba565b005b610462600480360381019061045d919061311d565b610d4a565b60405161046f9190613d49565b60405180910390f35b610492600480360381019061048d91906132c4565b610e02565b005b61049c610f65565b005b6104b860048036038101906104b39190613352565b610fdf565b6040516104c591906138ef565b60405180910390f35b6104e860048036038101906104e39190613316565b61100e565b6040516104f59190613956565b60405180910390f35b610506611078565b60405161051391906139a7565b60405180910390f35b61052461110a565b6040516105319190613971565b60405180910390f35b610554600480360381019061054f919061324c565b611111565b005b610570600480360381019061056b91906131d1565b611292565b005b61058c600480360381019061058791906133e0565b6112f4565b604051610599919061398c565b60405180910390f35b6105bc60048036038101906105b791906133e0565b61132b565b6040516105c991906139a7565b60405180910390f35b6105ec60048036038101906105e791906132ed565b6113d2565b6040516105f99190613d49565b60405180910390f35b61060a6113f6565b6040516106179190613971565b60405180910390f35b61063a60048036038101906106359190613316565b61141a565b005b61064461144e565b6040516106519190613971565b60405180910390f35b610674600480360381019061066f9190613146565b611472565b6040516106819190613956565b60405180910390f35b600061069582611544565b9050919050565b6060600280546106ab90613fa4565b80601f01602080910402602001604051908101604052809291908181526020018280546106d790613fa4565b80156107245780601f106106f957610100808354040283529160200191610724565b820191906000526020600020905b81548152906001019060200180831161070757829003601f168201915b5050505050905090565b6000610739826115be565b610778576040517f08c379a000000000000000000000000000000000000000000000000000000000815260040161076f90613be9565b60405180910390fd5b6006600083815260200190815260200160002060009054906101000a900473ffffffffffffffffffffffffffffffffffffffff169050919050565b60006107be82610c08565b90508073ffffffffffffffffffffffffffffffffffffffff168373ffffffffffffffffffffffffffffffffffffffff16141561082f576040517f08c379a000000000000000000000000000000000000000000000000000000000815260040161082690613c69565b60405180910390fd5b8073ffffffffffffffffffffffffffffffffffffffff1661084e61162a565b73ffffffffffffffffffffffffffffffffffffffff16148061087d575061087c8161087761162a565b611472565b5b6108bc576040517f08c379a00000000000000000000000000000000000000000000000000000000081526004016108b390613b69565b60405180910390fd5b6108c68383611632565b505050565b6000600a80549050905090565b6108e96108e361162a565b826116eb565b610928576040517f08c379a000000000000000000000000000000000000000000000000000000000815260040161091f90613c89565b60405180910390fd5b6109338383836117c9565b505050565b6000806000838152602001908152602001600020600101549050919050565b6109618282611a25565b610986816001600085815260200190815260200160002061151490919063ffffffff16565b505050565b600061099683610d4a565b82106109d7576040517f08c379a00000000000000000000000000000000000000000000000000000000081526004016109ce90613a49565b60405180910390fd5b600860008473ffffffffffffffffffffffffffffffffffffffff1673ffffffffffffffffffffffffffffffffffffffff168152602001908152602001600020600083815260200190815260200160002054905092915050565b610a3a8282611a8b565b610a5f8160016000858152602001908152602001600020611b0e90919063ffffffff16565b505050565b610a957f65d7a28e3265b37a6474929f336521b332c1681b933f6cb9f3376673440d862a610a9061162a565b61100e565b610ad4576040517f08c379a0000000000000000000000000000000000000000000000000000000008152600401610acb90613d09565b60405180910390fd5b610adc611b3e565b565b610af983838360405180602001604052806000815250611292565b505050565b610b0f610b0961162a565b826116eb565b610b4e576040517f08c379a0000000000000000000000000000000000000000000000000000000008152600401610b4590613ce9565b60405180910390fd5b610b5781611be0565b50565b6000610b646108cb565b8210610ba5576040517f08c379a0000000000000000000000000000000000000000000000000000000008152600401610b9c90613ca9565b60405180910390fd5b600a8281548110610bdf577f4e487b7100000000000000000000000000000000000000000000000000000000600052603260045260246000fd5b90600052602060002001549050919050565b6000600c60009054906101000a900460ff16905090565b6000806004600084815260200190815260200160002060009054906101000a900473ffffffffffffffffffffffffffffffffffffffff169050600073ffffffffffffffffffffffffffffffffffffffff168173ffffffffffffffffffffffffffffffffffffffff161415610cb1576040517f08c379a0000000000000000000000000000000000000000000000000000000008152600401610ca890613ba9565b60405180910390fd5b80915050919050565b610ceb7f9f2df0fed2c77648de5860a4cc508cd0818c85b8b8a1ab4ceeef8d981c8956a6610ce661162a565b61100e565b610d2a576040517f08c379a0000000000000000000000000000000000000000000000000000000008152600401610d2190613cc9565b60405180910390fd5b610d3d81610d38600d611cf1565b611cff565b610d47600d611ecd565b50565b60008073ffffffffffffffffffffffffffffffffffffffff168273ffffffffffffffffffffffffffffffffffffffff161415610dbb576040517f08c379a0000000000000000000000000000000000000000000000000000000008152600401610db290613b89565b60405180910390fd5b600560008373ffffffffffffffffffffffffffffffffffffffff1673ffffffffffffffffffffffffffffffffffffffff168152602001908152602001600020549050919050565b60106000827cffffffffffffffffffffffffffffffffffffffffffffffffffffffffff19167cffffffffffffffffffffffffffffffffffffffffffffffffffffffffff1916815260200190815260200160002060009054906101000a900460ff1615610ea3576040517f08c379a0000000000000000000000000000000000000000000000000000000008152600401610e9a90613c49565b60405180910390fd5b600f8190806001815401808255809150506001900390600052602060002090600a91828204019190066003029091909190916101000a81548162ffffff021916908360e81c0217905550610ef633610cba565b600160106000837cffffffffffffffffffffffffffffffffffffffffffffffffffffffffff19167cffffffffffffffffffffffffffffffffffffffffffffffffffffffffff1916815260200190815260200160002060006101000a81548160ff02191690831515021790555050565b610f967f65d7a28e3265b37a6474929f336521b332c1681b933f6cb9f3376673440d862a610f9161162a565b61100e565b610fd5576040517f08c379a0000000000000000000000000000000000000000000000000000000008152600401610fcc90613aa9565b60405180910390fd5b610fdd611ee3565b565b60006110068260016000868152602001908152602001600020611f8690919063ffffffff16565b905092915050565b600080600084815260200190815260200160002060000160008373ffffffffffffffffffffffffffffffffffffffff1673ffffffffffffffffffffffffffffffffffffffff16815260200190815260200160002060009054906101000a900460ff16905092915050565b60606003805461108790613fa4565b80601f01602080910402602001604051908101604052809291908181526020018280546110b390613fa4565b80156111005780601f106110d557610100808354040283529160200191611100565b820191906000526020600020905b8154815290600101906020018083116110e357829003601f168201915b5050505050905090565b6000801b81565b61111961162a565b73ffffffffffffffffffffffffffffffffffffffff168273ffffffffffffffffffffffffffffffffffffffff161415611187576040517f08c379a000000000000000000000000000000000000000000000000000000000815260040161117e90613ae9565b60405180910390fd5b806007600061119461162a565b73ffffffffffffffffffffffffffffffffffffffff1673ffffffffffffffffffffffffffffffffffffffff16815260200190815260200160002060008473ffffffffffffffffffffffffffffffffffffffff1673ffffffffffffffffffffffffffffffffffffffff16815260200190815260200160002060006101000a81548160ff0219169083151502179055508173ffffffffffffffffffffffffffffffffffffffff1661124161162a565b73ffffffffffffffffffffffffffffffffffffffff167f17307eab39ab6107e8899845ad3d59bd9653f200f220920489ca2b5937696c31836040516112869190613956565b60405180910390a35050565b6112a361129d61162a565b836116eb565b6112e2576040517f08c379a00000000000000000000000000000000000000000000000000000000081526004016112d990613c89565b60405180910390fd5b6112ee84848484611fa0565b50505050565b600f818154811061130457600080fd5b90600052602060002090600a9182820401919006600302915054906101000a900460e81b81565b6060611336826115be565b611375576040517f08c379a000000000000000000000000000000000000000000000000000000000815260040161136c90613c29565b60405180910390fd5b600061137f611ffc565b9050600081511161139f57604051806020016040528060008152506113ca565b806113a98461208e565b6040516020016113ba9291906138cb565b6040516020818303038152906040525b915050919050565b60006113ef6001600084815260200190815260200160002061223b565b9050919050565b7f9f2df0fed2c77648de5860a4cc508cd0818c85b8b8a1ab4ceeef8d981c8956a681565b6114248282612250565b6114498160016000858152602001908152602001600020611b0e90919063ffffffff16565b505050565b7f65d7a28e3265b37a6474929f336521b332c1681b933f6cb9f3376673440d862a81565b6000600760008473ffffffffffffffffffffffffffffffffffffffff1673ffffffffffffffffffffffffffffffffffffffff16815260200190815260200160002060008373ffffffffffffffffffffffffffffffffffffffff1673ffffffffffffffffffffffffffffffffffffffff16815260200190815260200160002060009054906101000a900460ff16905092915050565b61151082826122b6565b5050565b600061153c836000018373ffffffffffffffffffffffffffffffffffffffff1660001b612396565b905092915050565b60007f780e9d63000000000000000000000000000000000000000000000000000000007bffffffffffffffffffffffffffffffffffffffffffffffffffffffff1916827bffffffffffffffffffffffffffffffffffffffffffffffffffffffff191614806115b757506115b682612406565b5b9050919050565b60008073ffffffffffffffffffffffffffffffffffffffff166004600084815260200190815260200160002060009054906101000a900473ffffffffffffffffffffffffffffffffffffffff1673ffffffffffffffffffffffffffffffffffffffff1614159050919050565b600033905090565b816006600083815260200190815260200160002060006101000a81548173ffffffffffffffffffffffffffffffffffffffff021916908373ffffffffffffffffffffffffffffffffffffffff160217905550808273ffffffffffffffffffffffffffffffffffffffff166116a583610c08565b73ffffffffffffffffffffffffffffffffffffffff167f8c5be1e5ebec7d5bd14f71427d1e84f3dd0314c0f7b2291e5b200ac8c7c3b92560405160405180910390a45050565b60006116f6826115be565b611735576040517f08c379a000000000000000000000000000000000000000000000000000000000815260040161172c90613b09565b60405180910390fd5b600061174083610c08565b90508073ffffffffffffffffffffffffffffffffffffffff168473ffffffffffffffffffffffffffffffffffffffff1614806117af57508373ffffffffffffffffffffffffffffffffffffffff166117978461072e565b73ffffffffffffffffffffffffffffffffffffffff16145b806117c057506117bf8185611472565b5b91505092915050565b8273ffffffffffffffffffffffffffffffffffffffff166117e982610c08565b73ffffffffffffffffffffffffffffffffffffffff161461183f576040517f08c379a000000000000000000000000000000000000000000000000000000000815260040161183690613c09565b60405180910390fd5b600073ffffffffffffffffffffffffffffffffffffffff168273ffffffffffffffffffffffffffffffffffffffff1614156118af576040517f08c379a00000000000000000000000000000000000000000000000000000000081526004016118a690613ac9565b60405180910390fd5b6118ba8383836124e8565b6118c5600082611632565b6001600560008573ffffffffffffffffffffffffffffffffffffffff1673ffffffffffffffffffffffffffffffffffffffff16815260200190815260200160002060008282546119159190613e84565b925050819055506001600560008473ffffffffffffffffffffffffffffffffffffffff1673ffffffffffffffffffffffffffffffffffffffff168152602001908152602001600020600082825461196c9190613dfd565b92505081905550816004600083815260200190815260200160002060006101000a81548173ffffffffffffffffffffffffffffffffffffffff021916908373ffffffffffffffffffffffffffffffffffffffff160217905550808273ffffffffffffffffffffffffffffffffffffffff168473ffffffffffffffffffffffffffffffffffffffff167fddf252ad1be2c89b69c2b068fc378daa952ba7f163c4a11628f55a4df523b3ef60405160405180910390a4505050565b611a3e611a3183610938565b611a3961162a565b61100e565b611a7d576040517f08c379a0000000000000000000000000000000000000000000000000000000008152600401611a7490613a09565b60405180910390fd5b611a8782826122b6565b5050565b611a9361162a565b73ffffffffffffffffffffffffffffffffffffffff168173ffffffffffffffffffffffffffffffffffffffff1614611b00576040517f08c379a0000000000000000000000000000000000000000000000000000000008152600401611af790613d29565b60405180910390fd5b611b0a82826124f8565b5050565b6000611b36836000018373ffffffffffffffffffffffffffffffffffffffff1660001b6125d9565b905092915050565b611b46610bf1565b611b85576040517f08c379a0000000000000000000000000000000000000000000000000000000008152600401611b7c90613a29565b60405180910390fd5b6000600c60006101000a81548160ff0219169083151502179055507f5db9ee0a495bf2e6ff9c91a7834c1ba4fdd244a5e8aa4e537bd38aeae4b073aa611bc961162a565b604051611bd691906138ef565b60405180910390a1565b6000611beb82610c08565b9050611bf9816000846124e8565b611c04600083611632565b6001600560008373ffffffffffffffffffffffffffffffffffffffff1673ffffffffffffffffffffffffffffffffffffffff1681526020019081526020016000206000828254611c549190613e84565b925050819055506004600083815260200190815260200160002060006101000a81549073ffffffffffffffffffffffffffffffffffffffff021916905581600073ffffffffffffffffffffffffffffffffffffffff168273ffffffffffffffffffffffffffffffffffffffff167fddf252ad1be2c89b69c2b068fc378daa952ba7f163c4a11628f55a4df523b3ef60405160405180910390a45050565b600081600001549050919050565b600073ffffffffffffffffffffffffffffffffffffffff168273ffffffffffffffffffffffffffffffffffffffff161415611d6f576040517f08c379a0000000000000000000000000000000000000000000000000000000008152600401611d6690613bc9565b60405180910390fd5b611d78816115be565b15611db8576040517f08c379a0000000000000000000000000000000000000000000000000000000008152600401611daf90613a89565b60405180910390fd5b611dc4600083836124e8565b6001600560008473ffffffffffffffffffffffffffffffffffffffff1673ffffffffffffffffffffffffffffffffffffffff1681526020019081526020016000206000828254611e149190613dfd565b92505081905550816004600083815260200190815260200160002060006101000a81548173ffffffffffffffffffffffffffffffffffffffff021916908373ffffffffffffffffffffffffffffffffffffffff160217905550808273ffffffffffffffffffffffffffffffffffffffff16600073ffffffffffffffffffffffffffffffffffffffff167fddf252ad1be2c89b69c2b068fc378daa952ba7f163c4a11628f55a4df523b3ef60405160405180910390a45050565b6001816000016000828254019250508190555050565b611eeb610bf1565b15611f2b576040517f08c379a0000000000000000000000000000000000000000000000000000000008152600401611f2290613b49565b60405180910390fd5b6001600c60006101000a81548160ff0219169083151502179055507f62e78cea01bee320cd4e420270b5ea74000d11b0c9f74754ebdbfc544b05a258611f6f61162a565b604051611f7c91906138ef565b60405180910390a1565b6000611f958360000183612763565b60001c905092915050565b611fab8484846117c9565b611fb7848484846127fd565b611ff6576040517f08c379a0000000000000000000000000000000000000000000000000000000008152600401611fed90613a69565b60405180910390fd5b50505050565b6060600e805461200b90613fa4565b80601f016020809104026020016040519081016040528092919081815260200182805461203790613fa4565b80156120845780601f1061205957610100808354040283529160200191612084565b820191906000526020600020905b81548152906001019060200180831161206757829003601f168201915b5050505050905090565b606060008214156120d6576040518060400160405280600181526020017f30000000000000000000000000000000000000000000000000000000000000008152509050612236565b600082905060005b600082146121085780806120f190614007565b915050600a826121019190613e53565b91506120de565b60008167ffffffffffffffff81111561214a577f4e487b7100000000000000000000000000000000000000000000000000000000600052604160045260246000fd5b6040519080825280601f01601f19166020018201604052801561217c5781602001600182028036833780820191505090505b5090505b6000851461222f576001826121959190613e84565b9150600a856121a49190614050565b60306121b09190613dfd565b60f81b8183815181106121ec577f4e487b7100000000000000000000000000000000000000000000000000000000600052603260045260246000fd5b60200101907effffffffffffffffffffffffffffffffffffffffffffffffffffffffffffff1916908160001a905350600a856122289190613e53565b9450612180565b8093505050505b919050565b600061224982600001612994565b9050919050565b61226961225c83610938565b61226461162a565b61100e565b6122a8576040517f08c379a000000000000000000000000000000000000000000000000000000000815260040161229f90613b29565b60405180910390fd5b6122b282826124f8565b5050565b6122c0828261100e565b61239257600160008084815260200190815260200160002060000160008373ffffffffffffffffffffffffffffffffffffffff1673ffffffffffffffffffffffffffffffffffffffff16815260200190815260200160002060006101000a81548160ff02191690831515021790555061233761162a565b73ffffffffffffffffffffffffffffffffffffffff168173ffffffffffffffffffffffffffffffffffffffff16837f2f8788117e7eff1d82e926ec794901d17c78024a50270940304540a733656f0d60405160405180910390a45b5050565b60006123a283836129a5565b6123fb578260000182908060018154018082558091505060019003906000526020600020016000909190919091505582600001805490508360010160008481526020019081526020016000208190555060019050612400565b600090505b92915050565b60007f80ac58cd000000000000000000000000000000000000000000000000000000007bffffffffffffffffffffffffffffffffffffffffffffffffffffffff1916827bffffffffffffffffffffffffffffffffffffffffffffffffffffffff191614806124d157507f5b5e139f000000000000000000000000000000000000000000000000000000007bffffffffffffffffffffffffffffffffffffffffffffffffffffffff1916827bffffffffffffffffffffffffffffffffffffffffffffffffffffffff1916145b806124e157506124e0826129c8565b5b9050919050565b6124f3838383612a42565b505050565b612502828261100e565b156125d557600080600084815260200190815260200160002060000160008373ffffffffffffffffffffffffffffffffffffffff1673ffffffffffffffffffffffffffffffffffffffff16815260200190815260200160002060006101000a81548160ff02191690831515021790555061257a61162a565b73ffffffffffffffffffffffffffffffffffffffff168173ffffffffffffffffffffffffffffffffffffffff16837ff6391f5c32d9c69d2a47ea670b442974b53935d1edc7fd64eb21e047a839171b60405160405180910390a45b5050565b6000808360010160008481526020019081526020016000205490506000811461275757600060018261260b9190613e84565b90506000600186600001805490506126239190613e84565b90506000866000018281548110612663577f4e487b7100000000000000000000000000000000000000000000000000000000600052603260045260246000fd5b90600052602060002001549050808760000184815481106126ad577f4e487b7100000000000000000000000000000000000000000000000000000000600052603260045260246000fd5b90600052602060002001819055506001836126c89190613dfd565b876001016000838152602001908152602001600020819055508660000180548061271b577f4e487b7100000000000000000000000000000000000000000000000000000000600052603160045260246000fd5b6001900381819060005260206000200160009055905586600101600087815260200190815260200160002060009055600194505050505061275d565b60009150505b92915050565b6000818360000180549050116127ae576040517f08c379a00000000000000000000000000000000000000000000000000000000081526004016127a5906139c9565b60405180910390fd5b8260000182815481106127ea577f4e487b7100000000000000000000000000000000000000000000000000000000600052603260045260246000fd5b9060005260206000200154905092915050565b600061281e8473ffffffffffffffffffffffffffffffffffffffff16612a9a565b15612987578373ffffffffffffffffffffffffffffffffffffffff1663150b7a0261284761162a565b8786866040518563ffffffff1660e01b8152600401612869949392919061390a565b602060405180830381600087803b15801561288357600080fd5b505af19250505080156128b457506040513d601f19601f820116820180604052508101906128b191906133b7565b60015b612937573d80600081146128e4576040519150601f19603f3d011682016040523d82523d6000602084013e6128e9565b606091505b5060008151141561292f576040517f08c379a000000000000000000000000000000000000000000000000000000000815260040161292690613a69565b60405180910390fd5b805181602001fd5b63150b7a0260e01b7bffffffffffffffffffffffffffffffffffffffffffffffffffffffff1916817bffffffffffffffffffffffffffffffffffffffffffffffffffffffff19161491505061298c565b600190505b949350505050565b600081600001805490509050919050565b600080836001016000848152602001908152602001600020541415905092915050565b60007f5a05180f000000000000000000000000000000000000000000000000000000007bffffffffffffffffffffffffffffffffffffffffffffffffffffffff1916827bffffffffffffffffffffffffffffffffffffffffffffffffffffffff19161480612a3b5750612a3a82612aad565b5b9050919050565b612a4d838383612b27565b612a55610bf1565b15612a95576040517f08c379a0000000000000000000000000000000000000000000000000000000008152600401612a8c906139e9565b60405180910390fd5b505050565b600080823b905060008111915050919050565b60007f7965db0b000000000000000000000000000000000000000000000000000000007bffffffffffffffffffffffffffffffffffffffffffffffffffffffff1916827bffffffffffffffffffffffffffffffffffffffffffffffffffffffff19161480612b205750612b1f82612c3b565b5b9050919050565b612b32838383612ca5565b600073ffffffffffffffffffffffffffffffffffffffff168373ffffffffffffffffffffffffffffffffffffffff161415612b7557612b7081612caa565b612bb4565b8173ffffffffffffffffffffffffffffffffffffffff168373ffffffffffffffffffffffffffffffffffffffff1614612bb357612bb28382612cf3565b5b5b600073ffffffffffffffffffffffffffffffffffffffff168273ffffffffffffffffffffffffffffffffffffffff161415612bf757612bf281612e60565b612c36565b8273ffffffffffffffffffffffffffffffffffffffff168273ffffffffffffffffffffffffffffffffffffffff1614612c3557612c348282612fa3565b5b5b505050565b60007f01ffc9a7000000000000000000000000000000000000000000000000000000007bffffffffffffffffffffffffffffffffffffffffffffffffffffffff1916827bffffffffffffffffffffffffffffffffffffffffffffffffffffffff1916149050919050565b505050565b600a80549050600b600083815260200190815260200160002081905550600a81908060018154018082558091505060019003906000526020600020016000909190919091505550565b60006001612d0084610d4a565b612d0a9190613e84565b9050600060096000848152602001908152602001600020549050818114612def576000600860008673ffffffffffffffffffffffffffffffffffffffff1673ffffffffffffffffffffffffffffffffffffffff168152602001908152602001600020600084815260200190815260200160002054905080600860008773ffffffffffffffffffffffffffffffffffffffff1673ffffffffffffffffffffffffffffffffffffffff168152602001908152602001600020600084815260200190815260200160002081905550816009600083815260200190815260200160002081905550505b6009600084815260200190815260200160002060009055600860008573ffffffffffffffffffffffffffffffffffffffff1673ffffffffffffffffffffffffffffffffffffffff16815260200190815260200160002060008381526020019081526020016000206000905550505050565b60006001600a80549050612e749190613e84565b90506000600b60008481526020019081526020016000205490506000600a8381548110612eca577f4e487b7100000000000000000000000000000000000000000000000000000000600052603260045260246000fd5b9060005260206000200154905080600a8381548110612f12577f4e487b7100000000000000000000000000000000000000000000000000000000600052603260045260246000fd5b906000526020600020018190555081600b600083815260200190815260200160002081905550600b600085815260200190815260200160002060009055600a805480612f87577f4e487b7100000000000000000000000000000000000000000000000000000000600052603160045260246000fd5b6001900381819060005260206000200160009055905550505050565b6000612fae83610d4a565b905081600860008573ffffffffffffffffffffffffffffffffffffffff1673ffffffffffffffffffffffffffffffffffffffff168152602001908152602001600020600083815260200190815260200160002081905550806009600084815260200190815260200160002081905550505050565b600061303561303084613d89565b613d64565b90508281526020810184848401111561304d57600080fd5b613058848285613f62565b509392505050565b60008135905061306f8161490e565b92915050565b60008135905061308481614925565b92915050565b6000813590506130998161493c565b92915050565b6000813590506130ae81614953565b92915050565b6000813590506130c38161496a565b92915050565b6000815190506130d88161496a565b92915050565b600082601f8301126130ef57600080fd5b81356130ff848260208601613022565b91505092915050565b60008135905061311781614981565b92915050565b60006020828403121561312f57600080fd5b600061313d84828501613060565b91505092915050565b6000806040838503121561315957600080fd5b600061316785828601613060565b925050602061317885828601613060565b9150509250929050565b60008060006060848603121561319757600080fd5b60006131a586828701613060565b93505060206131b686828701613060565b92505060406131c786828701613108565b9150509250925092565b600080600080608085870312156131e757600080fd5b60006131f587828801613060565b945050602061320687828801613060565b935050604061321787828801613108565b925050606085013567ffffffffffffffff81111561323457600080fd5b613240878288016130de565b91505092959194509250565b6000806040838503121561325f57600080fd5b600061326d85828601613060565b925050602061327e85828601613075565b9150509250929050565b6000806040838503121561329b57600080fd5b60006132a985828601613060565b92505060206132ba85828601613108565b9150509250929050565b6000602082840312156132d657600080fd5b60006132e48482850161308a565b91505092915050565b6000602082840312156132ff57600080fd5b600061330d8482850161309f565b91505092915050565b6000806040838503121561332957600080fd5b60006133378582860161309f565b925050602061334885828601613060565b9150509250929050565b6000806040838503121561336557600080fd5b60006133738582860161309f565b925050602061338485828601613108565b9150509250929050565b6000602082840312156133a057600080fd5b60006133ae848285016130b4565b91505092915050565b6000602082840312156133c957600080fd5b60006133d7848285016130c9565b91505092915050565b6000602082840312156133f257600080fd5b600061340084828501613108565b91505092915050565b61341281613eb8565b82525050565b61342181613eca565b82525050565b61343081613f02565b82525050565b61343f81613ed6565b82525050565b600061345082613dba565b61345a8185613dd0565b935061346a818560208601613f71565b6134738161413d565b840191505092915050565b600061348982613dc5565b6134938185613de1565b93506134a3818560208601613f71565b6134ac8161413d565b840191505092915050565b60006134c282613dc5565b6134cc8185613df2565b93506134dc818560208601613f71565b80840191505092915050565b60006134f5602283613de1565b91506135008261414e565b604082019050919050565b6000613518602b83613de1565b91506135238261419d565b604082019050919050565b600061353b602f83613de1565b9150613546826141ec565b604082019050919050565b600061355e601483613de1565b91506135698261423b565b602082019050919050565b6000613581602b83613de1565b915061358c82614264565b604082019050919050565b60006135a4603283613de1565b91506135af826142b3565b604082019050919050565b60006135c7601c83613de1565b91506135d282614302565b602082019050919050565b60006135ea603e83613de1565b91506135f58261432b565b604082019050919050565b600061360d602483613de1565b91506136188261437a565b604082019050919050565b6000613630601983613de1565b915061363b826143c9565b602082019050919050565b6000613653602c83613de1565b915061365e826143f2565b604082019050919050565b6000613676603083613de1565b915061368182614441565b604082019050919050565b6000613699601083613de1565b91506136a482614490565b602082019050919050565b60006136bc603883613de1565b91506136c7826144b9565b604082019050919050565b60006136df602a83613de1565b91506136ea82614508565b604082019050919050565b6000613702602983613de1565b915061370d82614557565b604082019050919050565b6000613725602083613de1565b9150613730826145a6565b602082019050919050565b6000613748602c83613de1565b9150613753826145cf565b604082019050919050565b600061376b602983613de1565b91506137768261461e565b604082019050919050565b600061378e602f83613de1565b91506137998261466d565b604082019050919050565b60006137b1600c83613de1565b91506137bc826146bc565b602082019050919050565b60006137d4602183613de1565b91506137df826146e5565b604082019050919050565b60006137f7603183613de1565b915061380282614734565b604082019050919050565b600061381a602c83613de1565b915061382582614783565b604082019050919050565b600061383d603d83613de1565b9150613848826147d2565b604082019050919050565b6000613860603083613de1565b915061386b82614821565b604082019050919050565b6000613883604083613de1565b915061388e82614870565b604082019050919050565b60006138a6602f83613de1565b91506138b1826148bf565b604082019050919050565b6138c581613f58565b82525050565b60006138d782856134b7565b91506138e382846134b7565b91508190509392505050565b60006020820190506139046000830184613409565b92915050565b600060808201905061391f6000830187613409565b61392c6020830186613409565b61393960408301856138bc565b818103606083015261394b8184613445565b905095945050505050565b600060208201905061396b6000830184613418565b92915050565b60006020820190506139866000830184613427565b92915050565b60006020820190506139a16000830184613436565b92915050565b600060208201905081810360008301526139c1818461347e565b905092915050565b600060208201905081810360008301526139e2816134e8565b9050919050565b60006020820190508181036000830152613a028161350b565b9050919050565b60006020820190508181036000830152613a228161352e565b9050919050565b60006020820190508181036000830152613a4281613551565b9050919050565b60006020820190508181036000830152613a6281613574565b9050919050565b60006020820190508181036000830152613a8281613597565b9050919050565b60006020820190508181036000830152613aa2816135ba565b9050919050565b60006020820190508181036000830152613ac2816135dd565b9050919050565b60006020820190508181036000830152613ae281613600565b9050919050565b60006020820190508181036000830152613b0281613623565b9050919050565b60006020820190508181036000830152613b2281613646565b9050919050565b60006020820190508181036000830152613b4281613669565b9050919050565b60006020820190508181036000830152613b628161368c565b9050919050565b60006020820190508181036000830152613b82816136af565b9050919050565b60006020820190508181036000830152613ba2816136d2565b9050919050565b60006020820190508181036000830152613bc2816136f5565b9050919050565b60006020820190508181036000830152613be281613718565b9050919050565b60006020820190508181036000830152613c028161373b565b9050919050565b60006020820190508181036000830152613c228161375e565b9050919050565b60006020820190508181036000830152613c4281613781565b9050919050565b60006020820190508181036000830152613c62816137a4565b9050919050565b60006020820190508181036000830152613c82816137c7565b9050919050565b60006020820190508181036000830152613ca2816137ea565b9050919050565b60006020820190508181036000830152613cc28161380d565b9050919050565b60006020820190508181036000830152613ce281613830565b9050919050565b60006020820190508181036000830152613d0281613853565b9050919050565b60006020820190508181036000830152613d2281613876565b9050919050565b60006020820190508181036000830152613d4281613899565b9050919050565b6000602082019050613d5e60008301846138bc565b92915050565b6000613d6e613d7f565b9050613d7a8282613fd6565b919050565b6000604051905090565b600067ffffffffffffffff821115613da457613da361410e565b5b613dad8261413d565b9050602081019050919050565b600081519050919050565b600081519050919050565b600082825260208201905092915050565b600082825260208201905092915050565b600081905092915050565b6000613e0882613f58565b9150613e1383613f58565b9250827fffffffffffffffffffffffffffffffffffffffffffffffffffffffffffffffff03821115613e4857613e47614081565b5b828201905092915050565b6000613e5e82613f58565b9150613e6983613f58565b925082613e7957613e786140b0565b5b828204905092915050565b6000613e8f82613f58565b9150613e9a83613f58565b925082821015613ead57613eac614081565b5b828203905092915050565b6000613ec382613f38565b9050919050565b60008115159050919050565b60007fffffff000000000000000000000000000000000000000000000000000000000082169050919050565b6000819050919050565b60007fffffffff0000000000000000000000000000000000000000000000000000000082169050919050565b600073ffffffffffffffffffffffffffffffffffffffff82169050919050565b6000819050919050565b82818337600083830152505050565b60005b83811015613f8f578082015181840152602081019050613f74565b83811115613f9e576000848401525b50505050565b60006002820490506001821680613fbc57607f821691505b60208210811415613fd057613fcf6140df565b5b50919050565b613fdf8261413d565b810181811067ffffffffffffffff82111715613ffe57613ffd61410e565b5b80604052505050565b600061401282613f58565b91507fffffffffffffffffffffffffffffffffffffffffffffffffffffffffffffffff82141561404557614044614081565b5b600182019050919050565b600061405b82613f58565b915061406683613f58565b925082614076576140756140b0565b5b828206905092915050565b7f4e487b7100000000000000000000000000000000000000000000000000000000600052601160045260246000fd5b7f4e487b7100000000000000000000000000000000000000000000000000000000600052601260045260246000fd5b7f4e487b7100000000000000000000000000000000000000000000000000000000600052602260045260246000fd5b7f4e487b7100000000000000000000000000000000000000000000000000000000600052604160045260246000fd5b6000601f19601f8301169050919050565b7f456e756d657261626c655365743a20696e646578206f7574206f6620626f756e60008201527f6473000000000000000000000000000000000000000000000000000000000000602082015250565b7f4552433732315061757361626c653a20746f6b656e207472616e73666572207760008201527f68696c6520706175736564000000000000000000000000000000000000000000602082015250565b7f416363657373436f6e74726f6c3a2073656e646572206d75737420626520616e60008201527f2061646d696e20746f206772616e740000000000000000000000000000000000602082015250565b7f5061757361626c653a206e6f7420706175736564000000000000000000000000600082015250565b7f455243373231456e756d657261626c653a206f776e657220696e646578206f7560008201527f74206f6620626f756e6473000000000000000000000000000000000000000000602082015250565b7f4552433732313a207472616e7366657220746f206e6f6e20455243373231526560008201527f63656976657220696d706c656d656e7465720000000000000000000000000000602082015250565b7f4552433732313a20746f6b656e20616c7265616479206d696e74656400000000600082015250565b7f4552433732315072657365744d696e7465725061757365724175746f49643a2060008201527f6d75737420686176652070617573657220726f6c6520746f2070617573650000602082015250565b7f4552433732313a207472616e7366657220746f20746865207a65726f2061646460008201527f7265737300000000000000000000000000000000000000000000000000000000602082015250565b7f4552433732313a20617070726f766520746f2063616c6c657200000000000000600082015250565b7f4552433732313a206f70657261746f7220717565727920666f72206e6f6e657860008201527f697374656e7420746f6b656e0000000000000000000000000000000000000000602082015250565b7f416363657373436f6e74726f6c3a2073656e646572206d75737420626520616e60008201527f2061646d696e20746f207265766f6b6500000000000000000000000000000000602082015250565b7f5061757361626c653a2070617573656400000000000000000000000000000000600082015250565b7f4552433732313a20617070726f76652063616c6c6572206973206e6f74206f7760008201527f6e6572206e6f7220617070726f76656420666f7220616c6c0000000000000000602082015250565b7f4552433732313a2062616c616e636520717565727920666f7220746865207a6560008201527f726f206164647265737300000000000000000000000000000000000000000000602082015250565b7f4552433732313a206f776e657220717565727920666f72206e6f6e657869737460008201527f656e7420746f6b656e0000000000000000000000000000000000000000000000602082015250565b7f4552433732313a206d696e7420746f20746865207a65726f2061646472657373600082015250565b7f4552433732313a20617070726f76656420717565727920666f72206e6f6e657860008201527f697374656e7420746f6b656e0000000000000000000000000000000000000000602082015250565b7f4552433732313a207472616e73666572206f6620746f6b656e2074686174206960008201527f73206e6f74206f776e0000000000000000000000000000000000000000000000602082015250565b7f4552433732314d657461646174613a2055524920717565727920666f72206e6f60008201527f6e6578697374656e7420746f6b656e0000000000000000000000000000000000602082015250565b7f636f6c6f72206578697374730000000000000000000000000000000000000000600082015250565b7f4552433732313a20617070726f76616c20746f2063757272656e74206f776e6560008201527f7200000000000000000000000000000000000000000000000000000000000000602082015250565b7f4552433732313a207472616e736665722063616c6c6572206973206e6f74206f60008201527f776e6572206e6f7220617070726f766564000000000000000000000000000000602082015250565b7f455243373231456e756d657261626c653a20676c6f62616c20696e646578206f60008201527f7574206f6620626f756e64730000000000000000000000000000000000000000602082015250565b7f4552433732315072657365744d696e7465725061757365724175746f49643a2060008201527f6d7573742068617665206d696e74657220726f6c6520746f206d696e74000000602082015250565b7f4552433732314275726e61626c653a2063616c6c6572206973206e6f74206f7760008201527f6e6572206e6f7220617070726f76656400000000000000000000000000000000602082015250565b7f4552433732315072657365744d696e7465725061757365724175746f49643a2060008201527f6d75737420686176652070617573657220726f6c6520746f20756e7061757365602082015250565b7f416363657373436f6e74726f6c3a2063616e206f6e6c792072656e6f756e636560008201527f20726f6c657320666f722073656c660000000000000000000000000000000000602082015250565b61491781613eb8565b811461492257600080fd5b50565b61492e81613eca565b811461493957600080fd5b50565b61494581613ed6565b811461495057600080fd5b50565b61495c81613f02565b811461496757600080fd5b50565b61497381613f0c565b811461497e57600080fd5b50565b61498a81613f58565b811461499557600080fd5b5056fea2646970667358221220309296b61d6320bc8633f30fd6fbf2b77e8e4389988b1a3ccce1e4989f16cf8c64736f6c63430008030033",
  "immutableReferences": {},
  "source": "// SPDX-License-Identifier: MIT\npragma solidity >=0.8.0 <0.9.0;\n\nimport '@openzeppelin/contracts/token/ERC721/presets/ERC721PresetMinterPauserAutoId.sol';\n\ncontract Color is ERC721PresetMinterPauserAutoId {\n\n  bytes3[] public colors;\n  mapping(bytes3 => bool) private _colorExists;\n\n  constructor() ERC721PresetMinterPauserAutoId(\"color\", \"COLOR\", \"https://richardanchieta.com\") {\n    \n  }\n\n  // E.G. color = \"#FFFFFF\"\n  function mint(bytes3 _color) public {\n    require(!_colorExists[_color], \"color exists\");\n    colors.push(_color);\n    mint(msg.sender);\n    _colorExists[_color] = true;\n  }\n}",
  "sourcePath": "/home/ubuntu/class/ethereum/rsk_nft/dapp-colors/contracts/Color.sol",
  "compiler": {
    "name": "solc",
    "version": "0.8.3+commit.8d00100c.Emscripten.clang"
  },
  "schemaVersion": "3.3.4",
  "updatedAt": "2021-04-13T03:16:11.999Z",
  "networkType": "ethereum",
  "devdoc": {
    "kind": "dev",
    "methods": {
      "approve(address,uint256)": {
        "details": "See {IERC721-approve}."
      },
      "balanceOf(address)": {
        "details": "See {IERC721-balanceOf}."
      },
      "burn(uint256)": {
        "details": "Burns `tokenId`. See {ERC721-_burn}. Requirements: - The caller must own `tokenId` or be an approved operator."
      },
      "getApproved(uint256)": {
        "details": "See {IERC721-getApproved}."
      },
      "getRoleAdmin(bytes32)": {
        "details": "Returns the admin role that controls `role`. See {grantRole} and {revokeRole}. To change a role's admin, use {_setRoleAdmin}."
      },
      "getRoleMember(bytes32,uint256)": {
        "details": "Returns one of the accounts that have `role`. `index` must be a value between 0 and {getRoleMemberCount}, non-inclusive. Role bearers are not sorted in any particular way, and their ordering may change at any point. WARNING: When using {getRoleMember} and {getRoleMemberCount}, make sure you perform all queries on the same block. See the following https://forum.openzeppelin.com/t/iterating-over-elements-on-enumerableset-in-openzeppelin-contracts/2296[forum post] for more information."
      },
      "getRoleMemberCount(bytes32)": {
        "details": "Returns the number of accounts that have `role`. Can be used together with {getRoleMember} to enumerate all bearers of a role."
      },
      "grantRole(bytes32,address)": {
        "details": "Overload {grantRole} to track enumerable memberships"
      },
      "hasRole(bytes32,address)": {
        "details": "Returns `true` if `account` has been granted `role`."
      },
      "isApprovedForAll(address,address)": {
        "details": "See {IERC721-isApprovedForAll}."
      },
      "mint(address)": {
        "details": "Creates a new token for `to`. Its token ID will be automatically assigned (and available on the emitted {IERC721-Transfer} event), and the token URI autogenerated based on the base URI passed at construction. See {ERC721-_mint}. Requirements: - the caller must have the `MINTER_ROLE`."
      },
      "name()": {
        "details": "See {IERC721Metadata-name}."
      },
      "ownerOf(uint256)": {
        "details": "See {IERC721-ownerOf}."
      },
      "pause()": {
        "details": "Pauses all token transfers. See {ERC721Pausable} and {Pausable-_pause}. Requirements: - the caller must have the `PAUSER_ROLE`."
      },
      "paused()": {
        "details": "Returns true if the contract is paused, and false otherwise."
      },
      "renounceRole(bytes32,address)": {
        "details": "Overload {renounceRole} to track enumerable memberships"
      },
      "revokeRole(bytes32,address)": {
        "details": "Overload {revokeRole} to track enumerable memberships"
      },
      "safeTransferFrom(address,address,uint256)": {
        "details": "See {IERC721-safeTransferFrom}."
      },
      "safeTransferFrom(address,address,uint256,bytes)": {
        "details": "See {IERC721-safeTransferFrom}."
      },
      "setApprovalForAll(address,bool)": {
        "details": "See {IERC721-setApprovalForAll}."
      },
      "supportsInterface(bytes4)": {
        "details": "See {IERC165-supportsInterface}."
      },
      "symbol()": {
        "details": "See {IERC721Metadata-symbol}."
      },
      "tokenByIndex(uint256)": {
        "details": "See {IERC721Enumerable-tokenByIndex}."
      },
      "tokenOfOwnerByIndex(address,uint256)": {
        "details": "See {IERC721Enumerable-tokenOfOwnerByIndex}."
      },
      "tokenURI(uint256)": {
        "details": "See {IERC721Metadata-tokenURI}."
      },
      "totalSupply()": {
        "details": "See {IERC721Enumerable-totalSupply}."
      },
      "transferFrom(address,address,uint256)": {
        "details": "See {IERC721-transferFrom}."
      },
      "unpause()": {
        "details": "Unpauses all token transfers. See {ERC721Pausable} and {Pausable-_unpause}. Requirements: - the caller must have the `PAUSER_ROLE`."
      }
    },
    "version": 1
  },
  "userdoc": {
    "kind": "user",
    "methods": {},
    "version": 1
  }
}